:020000040000FA
:040000001EEF00F0FF
:100008000782D9CF01F0DACF02F09EA80EEF00F0F8
:1000180010EF00F018EF00F005C0D9FF06C0DAFFB6
:10002800DF50AE6E054A062A02C0DAFF01C0D9FFCA
:10003800079211008BEF00F0F28EF28C9E9A9D8A47
:1000480082EC00F0000E0001C56F000EC46F9EAA7E
:1000580030EF00F032EF00F02BEF00F0600E0001FF
:10006800C425D96E000EC521DA6EAFCFDFFF600E52
:10007800C425D96E000EC521DA6E0D0EDE18D8A47F
:1000880048EF00F04AEF00F054EF00F0600EC4258E
:10009800D96E000EC521DA6E000EDF6E58EF00F043
:1000A800C44BC52B2BEF00F0000EC56F000EC46FBC
:1000B800600EC425D96E000EC521DA6EDF5077ECCC
:1000C80000F00001C44BC52BC55109E1640EC45DA5
:1000D800D8A071EF00F073EF00F05CEF00F024EFB0
:1000E80000F01EEF00F0036E03C0AEFFADA27FEF7D
:1000F80000F081EF00F07AEF00F01200949C948EEB
:10010800200EB06E200EAD6E900EAC6E1200066A18
:0C011800056A07900792000120EF00F03C
:020000040001F9
:08FFF800BFF7FFFFFFFBFFFB59
:00000001FF
