:020000040000FA
:040000008AEFFFF094
:020000040001F9
:10FF14000001CEEFFFF0026E02C0C9FF9EA695EF6E
:10FF2400FFF097EFFFF090EFFFF09E96C95012009C
:10FF340093809392929A949E898A400EC76E220E61
:10FF4400C66E9E96000EC26E0F0EC16E1200000E9B
:10FF5400046E000E036EC2EFFFF0000E066E000E7C
:10FF6400056E054A062A065009E1A50E055CD8A0CF
:10FF7400BEEFFFF0C0EFFFF0B3EFFFF0034A042A37
:10FF84000150035C02500458D8A0CBEFFFF0CDEF32
:10FF9400FFF0AFEFFFF01200720ED36EF19E9AECF9
:10FFA400FFF0000E026E0A0E016EA9ECFFF0899AB2
:10FFB400000E086E000E076E07508DECFFF0030E66
:10FFC400026EE80E016EA9ECFFF0074A082A08BE8B
:10FFD400F5EFFFF0085009E1100E075CD8A0F5EF2B
:10FFE400FFF0F7EFFFF0DEEFFFF0898AD9EFFFF0C3
:04FFF40000EF00F02A
:08FFF800BFF7FFFFFFFBFFFB59
:00000001FF
